:100000000C9446000C9458000C9458000C94580022
:100010000C9458000C9458000C9458000C94580000
:100020000C9458000C9458000C9458000C945800F0
:100030000C9458000C9458000C9458000C945800E0
:100040000C9458000C9458000C9458000C945800D0
:100050000C9458000C9458000C9458000C945800C0
:100060000C9458000C9458000901809611800A3AAB
:1000700081550A3601402A04000000EF2B040000DD
:10008000013F21800A13800A29800A0011241FBE23
:10009000CFEFD8E0DEBFCDBF22E0A0E0B1E001C0ED
:1000A0001D92A03EB207E1F70E94BA010C94BF0175
:1000B0000C94000020E030E02817390709F4089577
:1000C000EFE9FFE03197F1F700C000002F5F3F4FED
:1000D000F3CF84B18C6284B92A9A80E58CBD81E02B
:1000E0008DBD08950E94690084B1836084B9289809
:1000F0002FEF89EF90E0215080409040E1F700C061
:100100000000289A2FEF82E597E021508040904030
:10011000E1F700C0000008958EBD0DB407FEFDCFCD
:1001200008950F931F93CF93DF9300D00F92CDB715
:10013000DEB76983172F042F2A9829980E948C0014
:10014000299A89818A831B83EA81FB81E00FF11D53
:100150008F01EA81FB81E017F10749F42A9A0F9099
:100160000F900F90DF91CF911F910F910895EA8129
:10017000FB8184910E948C008A819B8101968A83F5
:100180009B83E7CF0F931F93CF93DF93EB01142F44
:100190002A9829980E948C00299ACE01810F911DDE
:1001A0008C01C017D10731F42A9ADF91CF911F91AA
:1001B0000F91089589910E948C00F3CF0F931F93A4
:1001C000CF93DF9300D00F92CDB7DEB79C012F5FA6
:1001D0003F4FFC01F491FA83FA81F11108C00F90AE
:1001E0000F900F90DF91CF911F910F9108954A8149
:1001F00041504A83F901849189010E5F1F4F319666
:1002000044914B834F774983B8010E949100980134
:100210008981280F311D9B8197FFDECF89010F5FF8
:100220001F4FF9012491822F90E02F3F11F484EFAA
:1002300091E00E945A009801CFCF88E690E00C949C
:10024000DE00CF93DF93CDB7DEB728970FB6F894D3
:10025000DEBF0FBECDBFDC01FB01BA01C901BA2769
:10026000AB27BA27AD83BE837427672776276F83B2
:100270007887FE27EF27FE27E983FA8392278927CD
:1002800098278B839C8344E0BE016B5F7F4F8AE29B
:100290000E94C20044E0BE016F5F7F4F8BE20E946C
:1002A000C20040E060E070E08CE228960FB6F8945F
:1002B000DEBF0FBECDBFDF91CF910C94C200109274
:1002C000C50080E18093C400E0ECF0E080818260B2
:1002D000808388E18093C10086E08093C200089506
:1002E0008091C00087FFFCCF8091C6000895909157
:1002F000C00095FFFCCF8093C60008950E94720055
:100300000E941D010C945F01EF92FF920F931F93C7
:10031000CF93DF932FE331E04FEE50E060E070E0E9
:10032000CB010E9421012A98299AC0E4D1E082E5FC
:100330000E94770100E011E078010E947001F7014E
:1003400081937F01F0EEEF16F2E0FF06B1F7F801BE
:1003500081918F010E948C00F2E0003E1F07B9F7E7
:10036000219729F72A9ADF91CF911F910F91FF9042
:10037000EF9008950E947E010E948401FDCFF894C1
:02038000FFCFAD
:00000001FF
