:100000000C9446000C9450000C9450000C9450003A
:100010000C9450000C9450000C9450000C94500020
:100020000C9450000C9450000C9450000C94500010
:100030000C9450000C9450000C9450000C94500000
:100040000C9450000C9450000C9450000C945000F0
:100050000C9450000C9450000C9450000C945000E0
:100060000C9450000C9450000901809611800A3ABB
:1000700081550A3601402A04000000EF2B040000DD
:10008000013F21800A13800A29800A0011241FBE23
:10009000CFEFD8E0DEBFCDBF0E94A6010C94AB012C
:1000A0000C94000020E030E02817390709F4089587
:1000B000EFE9FFE03197F1F700C000002F5F3F4FFD
:1000C000F3CF84B18C6284B92A9A80E58CBD81E03B
:1000D0008DBD08950E94610084B1836084B9289821
:1000E0002FEF89EF90E0215080409040E1F700C071
:1000F0000000289A2FEF82E597E021508040904041
:10010000E1F700C0000008958EBD0DB407FEFDCFDD
:1001100008950F931F93CF93DF9300D00F92CDB725
:10012000DEB76983172F042F2A9829980E9484002C
:10013000299A89818A831B83EA81FB81E00FF11D63
:100140008F01EA81FB81E017F10749F42A9A0F90A9
:100150000F900F90DF91CF911F910F910895EA8139
:10016000FB8184910E9484008A819B8101968A830D
:100170009B83E7CF0F931F93CF93DF93EB01142F54
:100180002A9829980E948400299ACE01810F911DF6
:100190008C01C017D10731F42A9ADF91CF911F91BA
:1001A0000F91089589910E948400F3CF0F931F93BC
:1001B000CF93DF9300D00F92CDB7DEB79C012F5FB6
:1001C0003F4FFC01F491FA83FA81F11108C00F90BE
:1001D0000F900F90DF91CF911F910F9108954A8159
:1001E00041504A83F901849189010E5F1F4F319676
:1001F00044914B834F774983B8010E94890098014D
:100200008981280F311D9B8197FFDECF89010F5F08
:100210001F4FF9012491822F90E02F3F11F484EFBA
:1002200091E00E9452009801CFCF88E690E00C94B4
:10023000D600CF93DF93CDB7DEB728970FB6F894EB
:10024000DEBF0FBECDBFDC01FB01BA01C901BA2779
:10025000AB27BA27AD83BE837427672776276F83C2
:100260007887FE27EF27FE27E983FA8392278927DD
:1002700098278B839C8344E0BE016B5F7F4F8AE2AB
:100280000E94BA0044E0BE016F5F7F4F8BE20E9484
:10029000BA0040E060E070E08CE228960FB6F89477
:1002A000DEBF0FBECDBFDF91CF910C94BA000E948C
:1002B0006A000C9415010F931F93CF93DF9300D026
:1002C0000F92CDB7DEB72FE331E04FEE50E060E0A4
:1002D00070E0CB010E9419012A98299A1A821B8288
:1002E00000E010E08A819B810837110500F5803A13
:1002F000910520F5198288EF0E94840089810E946F
:1003000084000F5F1F4F003F110561F78A819B81B9
:1003100001968A839B838034914011F72A9A0F902B
:100320000F900F90DF91CF911F910F910895803A18
:10033000910540F490EE99838FEFDECF2FE1298372
:1003400080E0DACF80EE898387E0D6CF0E94570124
:0A0350000E945B01FDCFF894FFCF7F
:00000001FF
