:100000000C9446000C9450000C9450000C9450003A
:100010000C9450000C9450000C9450000C94500020
:100020000C9450000C9450000C9450000C94500010
:100030000C9450000C9450000C9450000C94500000
:100040000C9450000C9450000C9450000C945000F0
:100050000C9450000C9450000C9450000C945000E0
:100060000C9450000C9450000901809611800A3ABB
:1000700081550A3601402A04000000EF2B040000DD
:10008000013F21800A13800A29800A0011241FBE23
:10009000CFEFD8E0DEBFCDBF0E94BF020C940404B6
:1000A0000C94000020E030E02817390709F4089587
:1000B000EFE9FFE03197F1F700C000002F5F3F4FFD
:1000C000F3CF84B18C6284B92A9A80E58CBD81E03B
:1000D0008DBD08950E94610084B1836084B9289821
:1000E0002FEF89EF90E0215080409040E1F700C071
:1000F0000000289A2FEF82E597E021508040904041
:10010000E1F700C0000008958EBD0DB407FEFDCFDD
:1001100008950F931F93CF93DF9300D00F92CDB725
:10012000DEB76983172F042F2A9829980E9484002C
:10013000299A89818A831B83EA81FB81E00FF11D63
:100140008F01EA81FB81E017F10749F42A9A0F90A9
:100150000F900F90DF91CF911F910F910895EA8139
:10016000FB8184910E9484008A819B8101968A830D
:100170009B83E7CF0F931F93CF93DF93EB01142F54
:100180002A9829980E948400299ACE01810F911DF6
:100190008C01C017D10731F42A9ADF91CF911F91BA
:1001A0000F91089589910E948400F3CF0F931F93BC
:1001B000CF93DF9300D00F92CDB7DEB79C012F5FB6
:1001C0003F4FFC01F491FA83FA81F11108C00F90BE
:1001D0000F900F90DF91CF911F910F9108954A8159
:1001E00041504A83F901849189010E5F1F4F319676
:1001F00044914B834F774983B8010E94890098014D
:100200008981280F311D9B8197FFDECF89010F5F08
:100210001F4FF9012491822F90E02F3F11F484EFBA
:1002200091E00E9452009801CFCF88E690E00C94B4
:10023000D600CF93DF93CDB7DEB728970FB6F894EB
:10024000DEBF0FBECDBFDC01FB01BA01C901BA2779
:10025000AB27BA27AD83BE837427672776276F83C2
:100260007887FE27EF27FE27E983FA8392278927DD
:1002700098278B839C8344E0BE016B5F7F4F8AE2AB
:100280000E94BA0044E0BE016F5F7F4F8BE20E9484
:10029000BA0040E060E070E08CE228960FB6F89477
:1002A000DEBF0FBECDBFDF91CF910C94BA000E948C
:1002B0006A000C94150190E2699FB0011124642B2F
:1002C000982F990F990F990F862F972B08952F929A
:1002D0003F924F925F926F927F928F929F92AF92D6
:1002E000BF92CF92DF92EF92FF920F931F93CF9323
:1002F000DF93CDB7DEB76E970FB6F894DEBF0FBEB3
:10030000CDBF2FE331E04FEE50E060E070E0CB0175
:100310000E9419012A98299A19861A861B861C861A
:1003200069857A858B859C8520E431E040E050E04A
:100330000E94D802C901DA019850A109B1098D8B38
:100340009E8BAF8BB88F1D861E861F86188A6D8583
:100350007E858F85988920E13FEF4FEF5FEF0E9408
:10036000D802C901DA019C5FAF4FBF4F898F9A8FC6
:10037000AB8FBC8F1D821E821F82188619821A8243
:100380001B821C82212CA12CB12C1C8A312C210116
:10039000612C10E0198A1A8A1B8A1E8E4101712C69
:1003A0001D8E23944EE1241267C080E090E0A0E00F
:1003B000B0E0AC01BD0125E076956795579547956E
:1003C0002A95D1F734E0B695A795979587953A95F4
:1003D000D1F760E2969F902D869F802D9129112460
:1003E000342F330F330F330F932BDC01A42BB52B9A
:1003F000A983BA838A810E94840089810E94840033
:100400002D853E854F855889385F4F4F5F4F2D872B
:100410003E874F87588B211530484740510509F0DA
:1004200096CF29853A854B855C85345F4F4F5F4F6A
:1004300029873A874B875C87211531054F40510545
:1004400009F06ECF2A9A6E960FB6F894DEBF0FBEF3
:10045000CDBFDF91CF911F910F91FF90EF90DF9073
:10046000CF90BF90AF909F908F907F906F905F9054
:100470004F903F902F900895CC88D32C7201062D79
:1004800029893A894B895E8D692D782D872D9D8D1F
:100490000E94F7020AE00E94A2033A01770CCC08FE
:1004A0006C2D7C2D8C2D9C2D0BE00E9489030AE085
:1004B0000E94A20349015A01C98CDA8CEB8CFC8C96
:1004C000C80CD91CEA1CFB1C29813A814B815C8138
:1004D0008D819E81AF81B885281B390B4A0B5B0B40
:1004E0008D899E89AF89B88D280F391F4A1F5B1FE0
:1004F000298B3A8B4B8B5E8F852F880F880B982E1C
:10050000882E782E8D8FB901CA010E944F030E9458
:10051000A20329833A834B835C835601EC8A3F2CE8
:100520008F2D880F880B482E582E682E182FB60155
:10053000C7019601A7010E944F030E94A2032D83C9
:100540003E834F83588789819A81AB81BC812D81FD
:100550003E814F815885820F931FA41FB51F8130A4
:100560009041A105B1050CF41CCF922D990F990F64
:1005700080E06EE170E00E94C402CB0118CF0E94BF
:1005800057010E946701FDCF97FB072E16F40094D8
:1005900007D077FD09D00E94CE0307FC05D03EF4BA
:1005A000909581959F4F0895709561957F4F08951F
:1005B000052E97FB1EF400940E94EF0257FD07D012
:1005C0000E94E20307FC03D04EF40C94EF02509516
:1005D0004095309521953F4F4F4F5F4F089590952F
:1005E0008095709561957F4F8F4F9F4F0895DF9352
:1005F000CF931F930F939A9DF02D219FF00D8B9D0C
:10060000F00D8A9DE02DF10D039FF00D029FE00D8E
:10061000F11D4E9DE00DF11D5E9DF00D4F9DF00D05
:100620007F936F93BF92AF925F934F93D5010E94D8
:10063000BF038B01AC01D7010E94BF03EB01E80FA0
:10064000F91FD6010E9446032F913F91D6010E94C7
:10065000BF03C60FD71FE81FF91FAF91BF910E94BC
:1006600046032F913F910E94BF03C60FD71FE81F7B
:10067000F91FD6010E94BF03E60FF71F9801BE01C4
:10068000CF010F911F91CF91DF9108950E94BF0379
:10069000460F571FC81FD91F08F43196089597FBBE
:1006A00057FF0C945F039F938F930E945F036E1B11
:1006B0007F0BAF91BF918A0B9B0B0895E894DF935A
:1006C000CF93FC01DB010E94BF037F936F93E9018D
:1006D0009A01AC01BF93AF933F932F93DF010E9428
:1006E000BF0326F46C1B7D0B820B930B9E01EB0169
:1006F000FC010E944603AF91BF912F913F910E9450
:100700004603BE01CF01F9012F913F91CF91DF91B7
:100710000895002E083090F0982F872F762F652FA0
:10072000542F432F322F22270850F4CF220F331F8C
:10073000441F551F661F771F881F991F0A95B2F720
:10074000002D089597FD1094002E083098F0085061
:10075000232F342F452F562F672F782F892F912D38
:10076000F4CF159497958795779567955795479505
:10077000379527950A95AAF71124002D0895A29F71
:10078000B001B39FC001A39F700D811D1124911D65
:10079000B29F700D811D1124911D0895AA1BBB1BD2
:1007A00051E107C0AA1FBB1FA617B70710F0A61B71
:1007B000B70B881F991F5A95A9F780959095BC0192
:1007C000CD010895A1E21A2EAA1BBB1BFD010DC08D
:1007D000AA1FBB1FEE1FFF1FA217B307E407F507F1
:1007E00020F0A21BB30BE40BF50B661F771F881FCD
:1007F000991F1A9469F760957095809590959B0163
:0C080000AC01BD01CF010895F894FFCFBA
:00000001FF
